:1000000019C020C01FC01EC01DC01CC01BC01AC00C
:1000100019C018C017C016C015C014C013C012C034
:1000200011C010C00FC00EC00DC00CC00BC00AC064
:1000300009C008C011241FBECFEFD4E0DEBFCDBF82
:1000400005D050C0DDCF02C049C04AC04CE047B91E
:100050004CE048B940E94AB940E94BB905E00093A2
:10006000690003E00DBF05E00CBF789404E003BF16
:1000700005E003BF889504E003BF3130C9F032309A
:1000800009F0F6CF5AE040E04BB908D040E94BB94F
:1000900005D05A955030B9F730E0F3CF0AE01FEFA2
:1000A0002FEF2A95F1F71A95D9F70A95C1F7089518
:1000B0005AE040E048B908D04CE048B905D05A951C
:1000C0005030B9F730E0DBCF0AE01FEF2FEF2A9571
:1000D000F1F71A95D9F70A95C1F7089531E0189507
:0800E00032E01895F894FFCFFF
:00000001FF
