:020000020000FC
:1000000000C054E05EBF5FEF5DBF4CE047B94CE01D
:1000100048B940E94AB940E94BB90ED086EAC7EA87
:1000200090E0A5EE3CD07A1709F003C040E048B953
:10003000FDCF40E04BB9FDCF53E05093B9005CE2F7
:100040005093B80054E85093BC00089554EA50937C
:10005000BC005091BC0057FFFCCF089554E850936A
:10006000BC00B093BB005091BC0057FFFCCF08957B
:1000700054E85093BC005091BC0057FFF4CFB091AE
:10008000BB00089554E95093BC000895DFDFB82FFA
:10009000E5DFB92FE3DFBA2FE1DFF4DF0895D6DF24
:1000A000B82FDCDFB92FDADFD1DFBC2FD7DFE0DFFD
:0400B000E9DF0895E7
:00000001FF
