:020000020000FC
:1000000002C073C076C054E05EBF5FEF5DBF48E0E2
:1000100047B948E048B940E14AB940E14BB940E04E
:1000200005E00093690003E00DBB03E00CBB78948E
:1000300004E003BF62D086EA97EAA0E194D086EAA2
:10004000C7EA95E2A0E098D07A1709F004C044E02E
:1000500047B940E048B996E2A1E085D097E2A7E031
:1000600082D09CE2A6E07FD09FE2A7EF7CD09EE208
:10007000A8E079D09DE2A8E076D040E04BB905E059
:1000800003BF889504E003BF3130C9F0323009F076
:10009000F6CF5AE040E04BB908D040E14BB905D06B
:1000A0005A955030B9F730E0F3CF0AE01FEF2FEF49
:1000B0002A95F1F71A95D9F70A95C1F708955AE0EC
:1000C00040E048B908D048E048B905D05A955030CA
:1000D000B9F730E0DBCF0AE01FEF2FEF2A95F1F7F9
:1000E0001A95D9F70A95C1F70895F894789431E0F4
:1000F0001895F894789432E0189550E05093B90030
:1001000050E15093B80054E05093BC00089554EA75
:100110005093BC005091BC0057FFFCCF0895B093A2
:10012000BB0054E85093BC005091BC0057FFFCCF7B
:10013000089554E85093BC005091BC0057FFF4CF91
:10014000B091BB00089554E95093BC00089500910C
:10015000B900087F011709F405C040E94AB940E039
:100160004BB908950895D3DFB82FD9DFB92FD7DF62
:10017000BA2FD5DFE8DF0895CADFB82FD0DFB92F57
:10018000CEDFE1DFC4DFBC2FD4DF7B2FDCDF0895BF
:00000001FF
