:020000020000FC
:1000000002C066C069C054E05EBF5FEF5DBF48E0FC
:1000100047B948E048B940E14AB940E14BB905E089
:100020000093690003E00DBB03E00CBB789404E08F
:1000300003BF56D086EA99E1AFEF72D09AE1A1E012
:100040006FD09BE1AFE06CD09CE2A6E069D09FE26C
:10005000A7EF66D09EE2A8E063D09DE2A8E060D062
:1000600040E04BB905E003BF889504E003BF3130A1
:10007000C9F0323009F0F6CF5AE040E04BB908D071
:1000800040E14BB905D05A955030B9F730E0F3CF85
:100090000AE01FEF2FEF2A95F1F71A95D9F70A9585
:1000A000C1F708955AE040E048B908D048E048B99F
:1000B00005D05A955030B9F730E0DBCF0AE01FEF9A
:1000C0002FEF2A95F1F71A95D9F70A95C1F70895F8
:1000D000F894789431E01895F894789432E0189573
:1000E00050E05093B90050EB5093B80054E0509357
:1000F000BC00089554EA5093BC005091BC0057FFD7
:10010000FCCF0895B093BB0054E85093BC005091CD
:10011000BC0057FFFCCF089554E95093BC000895EC
:10012000E9DFB82FEFDFB92FEDDFBA2FEBDFF4DF18
:02013000089530
:00000001FF
