:020000020000FC
:1000000002C07EC081C054E05EBF5FEF5DBF4CE0C8
:1000100047B94CE048B940E94AB940E94BB940E03A
:1000200005E00093690003E00DBB03E00CBB78948E
:1000300004E003BF6DD086EA9DE2A8E0A5D0CDD054
:1000400086EAC7EA9DE2A8E0B0D0C7D07A1709F0E7
:1000500004C04CE047B940E048B986EA97EAA1E11C
:1000600093D0BBD096E2A1E08FD0B7D097E2A7E0C3
:100070008BD0B3D09CE2A6E087D0AFD09FE2A7EFB1
:1000800083D0ABD09EE2A8E07FD0A7D09DE2A8E0CD
:100090007BD0A3D005E003BF889504E003BF3130D7
:1000A000C9F0323009F0F6CF5AE040E04BB908D041
:1000B00040E14BB905D05A955030B9F730E0F3CF55
:1000C0000AE01FEF2FEF2A95F1F71A95D9F70A9555
:1000D000C1F708955AE040E048B908D048E048B96F
:1000E00005D05A955030B9F730E0DBCF0AE01FEF6A
:1000F0002FEF2A95F1F71A95D9F70A95C1F70895C8
:10010000F894789431E01895F894789432E0189542
:1001100050E05093B90050E25093B80054E050932F
:10012000BC00089554EA5093BC005091BC0057FFA6
:10013000FCCF50E00895B093BB0054E85093BC004E
:100140005091BC0057FFFCCF50E0B0E0089554E858
:100150005093BC005091BC0057FFF2CFB091BB0050
:1001600050E0089554E95093BC0050E00895509138
:10017000B900587F511709F405C040E94AB940E079
:100180004BB9089550E00895CDDF18E0F0DFB82FA7
:10019000D2DF18E1ECDFB92FCEDF18E2E8DFBA2FAB
:1001A000CADF18E2E4DFDEDF0895BCDF18E0DFDF3E
:1001B000B82FC1DF18E1DBDFB92FBDDF18E2D7DFD1
:1001C000B1DF10E1D4DFBC2FB6DF10E4D0DFBFDF3A
:1001D00018E5CDDF7B2FC6DF08956FEF6A9500002D
:0401E000E9F708959E
:00000001FF
