:020000020000FC
:1000000002C051C058C054E05EBF5FEF5DBFF894BE
:10001000789403E00DBB05E00093690003E00CBB9E
:1000200050E05093B90057E45093B80054E0509317
:10003000BC00089554EA5093BC005091BC0057FF97
:10004000FCCF0895B093BB0054E85093BC0050918E
:10005000BC0057FFFCCF089554E95093BC000895AD
:10006000DFDF86EA99E1A0E80FD09AE1AAE00CD0A0
:100070009BE1AFE009D09CE2AAE006D09FE2A7EFA7
:1000800003D09EE2A8E000D0D5DFB82FDBDFB92F88
:10009000D9DFBA2FD7DFE0DF08958895213099F0B6
:1000A000223021F1FACF0F930FB70F930F910FBFAB
:1000B0000F9121E018950F930FB70F930F910FBF7A
:1000C0000F9122E018954FEF4AB954E64FEF4BB924
:1000D00007D044274BB904D05A955030B9F7E0CF38
:0E00E00002E312E3F9F70A95E1F70895DBCF8A
:00000001FF
