:020000020000FC
:1000000000C054E05EBF5FEF5DBF4CE047B94CE01D
:1000100048B940E94AB940E94BB90AD086EAC7EA8B
:1000200090E0A5EE39D07A1709F002C040E048B957
:1000300050E05093B90050EB5093B80054E0509307
:10004000BC00089554EA5093BC005091BC0057FF87
:10005000FCCF0895B093BB0054E85093BC0050917E
:10006000BC0057FFFCCF089554E85093BC0050915A
:10007000BC0057FFF4CFB091BB00089554E95093F2
:10008000BC0008955091B900587F511709F403C07E
:1000900040E04BB908950895D5DF18E0F3DFB82F9D
:1000A000D9DF18E1EFDFB92FD5DF18E2EBDFCADFC8
:1000B00010E1E8DFBC2FCEDF10E4E4DFD5DF18E588
:0800C000E1DF7B2FDBDF089577
:00000001FF
