:020000020000FC
:1000000000C054E05EBF5FEF5DBF4CE047B94CE01D
:1000100048B940E94AB940E94BB94DD008D026E18A
:1000200045D0271719F440E048B9FFCFFFCF80ED46
:100030009EE0A0E074D080ED90E0A0E070D080ED74
:1000400091E0A0E06CD080ED90E1A9E168D080ED76
:1000500093E0A5E064D080ED94E0A8E160D080ED6D
:1000600095E0A1E15CD080ED96E0A6E158D008953E
:1000700080ED90E0C1ED64D0089580ED91E0C1ED98
:100080005FD0089580ED92E0C1ED5AD0089580EDE3
:1000900093E0C1ED55D0089580ED94E0C1ED50D0CE
:1000A000089580ED95E0C1ED4BD0089580ED96E088
:1000B000C1ED46D0089550E05093B90050EB5093F5
:1000C000B80054E05093BC00089554EA5093BC002B
:1000D0005091BC0057FFFCCF0895B093BB0054E88B
:1000E0005093BC005091BC0057FFFCCF089554E8DA
:1000F0005093BC005091BC0057FFF4CFB091BB00AF
:10010000089554E95093BC0008955091B900587F68
:10011000511709F403C040E04BB908950895D5DFA5
:1001200010E1F3DFB82FD9DF18E1EFDFB92FD5DF0A
:1001300018E2EBDFBA2FD1DF18E2E7DFE2DF089544
:10014000C4DF18E0E2DFB82FC8DF18E1DEDFB92F27
:10015000C4DF18E2DADFB9DF10E1D7DFBC2FBDDF83
:1001600010E4D3DFC4DF18E5D0DF7B2FCADF0895AA
:00000001FF
