:020000020000FC
:1000000000C041E047B940E048B91ED086EAC7EADF
:1000100095E2AAEA43D04BD04FEF4AB97BB97A17A1
:1000200009F003C041E048B9FFCFFFCF40E94BB929
:100030000AE01FEF2FEF2A95F1F71A95D9F70A95E5
:10004000C1F740E04BB9089550E05093B90050EB30
:100050005093B80054E05093BC00089554EA509374
:10006000BC005091BC0057FFFCCF0895B093BB007B
:1000700054E85093BC005091BC0057FFFCCF08954A
:1000800054E85093BC005091BC0057FFFCCFB09196
:10009000BB00089554E95093BC000895DFDFB82FEA
:1000A000E5DFB92FE3DFBA2FE1DFF4DF0895D6DF14
:1000B000B82FDCDFB92FDADFD1DFBC2FD7DFB0E01C
:0800C000DFDF7B2FE7DF08956D
:00000001FF
