:1000000019C020C01FC01EC01DC01CC01BC01AC00C
:1000100019C018C017C016C015C014C013C012C034
:1000200011C010C00FC00EC00DC00CC00BC00AC064
:1000300009C008C011241FBECFEFD4E0DEBFCDBF82
:100040007FD017C1DDCF1092B90084E58093B8004E
:10005000089594EA9093BC00ECEBF0E09081992332
:10006000ECF79091B900987F983011F09031A1F49D
:100070008093BB0084E88093BC00ECEBF0E08081CF
:100080008823ECF79091B900987F983139F081E09E
:10009000903429F480E0089581E0089580E0089587
:1000A000CF93DF93ECEBF0E024EAA9EBB0E0CBEBED
:1000B000D0E034E844E9208390819923ECF79C91C7
:1000C000987F983011F09031B1F788833083908118
:1000D0009923ECF79C91987F903211F0983529F490
:1000E0004083908194FDFDCFE6CFDF91CF910895BD
:1000F000B0DF089584E98093BC00ECEBF0E08081F0
:1001000084FDFDCF08958093BB0084E88093BC00FC
:10011000ECEBF0E080818823ECF79091B900987FB8
:1001200081E0983209F480E0089584E88093BC006F
:10013000ECEBF0E080818823ECF78091BB00089520
:100140008CE087B988B980E98AB98BB97CDF86EA07
:1001500080DF882319F0CEDF1BB88AC080E0D3DFB0
:1001600087EAC6DFE2DFC6DF86EA9ADF85E2CBDF19
:1001700081E1C9DFBFDF86EA93DF85E2C4DF87EA7A
:10018000B7DFD3DFC82FB6DFC13119F488B184706F
:1001900088B986EA85DF86E2B6DF81E0B4DFAADFD0
:1001A00086EA7EDF87E2AFDF8FE0ADDFA3DF86EA9E
:1001B00077DF8CE2A8DF86E0A6DF9CDF86EA70DFCF
:1001C0008FE2A1DF87EF9FDF95DF86EA69DF8EE2AE
:1001D0009ADF88E098DF8EDF86EA62DF8DE293DFC8
:1001E00088E091DF87DF80ED5BDF8EE08CDF80E0F1
:1001F0008ADF80DF80ED54DF80E085DF80E083DF11
:1002000079DF80ED4DDF81E07EDF80E07CDF72DF33
:1002100080ED46DF82E077DF89E175DF6BDF80ED1F
:100220003FDF83E070DF85E06EDF64DF80ED38DF85
:1002300084E069DF88E167DF5DDF80ED31DF85E045
:1002400062DF81E160DF56DF80ED2ADF85E05BDF82
:1002500086E159DF4FDF80ED23DF85E054DF81ED5C
:1002600047DF63DFC82F46DFC63111F488B118B805
:06027000FFCFF894FFCF60
:00000001FF
