S0170000546573745F636F6D706C65746F5F312E737265631B
S113000019C020C01FC01EC01DC01CC01BC01AC008
S113001019C018C017C016C015C014C013C012C030
S113002011C010C00FC00EC00DC00CC00BC00AC060
S113003009C008C011241FBECFEFD4E0DEBFCDBF7E
S113004005D05CC0DDCF02C051C054C04CE047B9FC
S11300504CE048B940E94AB940E94BB904E003BF70
S113006005E00093690003E00DBF05E00CBF789440
S11300704CE047B94CE048B940E94AB940E94BB9CA
S113008005E003BF889504E003BF3130C9F0323086
S113009009F0F6CF5AE040E04BB908D040E94BB93B
S11300A005D05A955030B9F730E0F3CF0AE01FEF8E
S11300B02FEF2A95F1F71A95D9F70A95C1F7089504
S11300C05AE040E048B908D04CE048B905D05A9508
S11300D05030B9F730E0DBCF0AE01FEF2FEF2A955D
S11300E0F1F71A95D9F70A95C1F70895F89431E014
S11300F078941895F89432E078941895F894FFCF92
S9030000FC
