S0170000546573745F636F6D706C65746F5F312E737265631B
S113000019C020C01FC01EC01DC01CC01BC01AC008
S113001019C018C017C016C015C014C013C012C030
S113002011C010C00FC00EC00DC00CC00BC00AC060
S113003009C008C011241FBECFEFD4E0DEBFCDBF7E
S11300400DD063C1DDCF0AC001C004C0F89431E013
S113005078941895F89432E0789418954CE047B960
S11300604CE048B940E94AB940E94BB904E003BF60
S1130070C5D001E00093490001E00DBB01E00CBBD9
S113008078944CE047B94CE048B940E94AB940E9B2
S11300904BB940E04BB905E003BF889504E003BFCA
S11300A03130C9F0323009F0F6CF5AE040E04BB9B4
S11300B008D040E94BB905D05A955030B9F730E033
S11300C0F3CF0AE01FEF2FEF2A95F1F71A95D9F72E
S11300D00A95C1F708955AE040E048B908D04CE0C9
S11300E048B905D05A955030B9F730E0F4CF0AE05A
S11300F01FEF2FEF2A95F1F71A95D9F70A95C1F753
S113010008951092B90084E58093B800089594EAA4
S11301109093BC00ECEBF0E090819923ECF7909184
S1130120B900987F983011F09031A1F48093BB000E
S113013084E88093BC00ECEBF0E080818823ECF74A
S11301409091B900987F983139F081E0903429F486
S113015080E0089581E0089580E00895CF93DF93CF
S1130160ECEBF0E024EAA9EBB0E0CBEBD0E034E830
S113017044E9208390819923ECF79C91987F9830EF
S113018011F09031B1F78883308390819923ECF793
S11301909C91987F903211F0983529F44083908196
S11301A094FDFDCFE6CFDF91CF910895B0DF0895A0
S11301B084E98093BC00ECEBF0E0808184FDFDCF0A
S11301C008958093BB0084E88093BC00ECEBF0E0DE
S11301D080818823ECF79091B900987F81E0983270
S11301E009F480E0089584E88093BC00ECEBF0E02F
S11301F080818823ECF78091BB00089582DF86EA32
S113020086DF882311F0D4DF089580E0DADF87EAFF
S1130210CDDFE9DFCDDF86EAA1DF85E2D2DF81E150
S1130220D0DFC6DF86EA9ADF85E2CBDF87EABEDF6E
S1130230DADFBEDF86EA92DF86E2C3DF81E0C1DF78
S1130240B7DF86EA8BDF87E2BCDF8FE0BADFB0DF9F
S113025086EA84DF8CE2B5DF86E0B3DFA9DF86EAD5
S11302607DDF8FE2AEDF87EFACDFA2DF86EA76DFE9
S11302708EE2A7DF88E0A5DF9BDF86EA6FDF8DE2F1
S1130280A0DF88E09EDF94DF80ED68DF8EE099DFF9
S113029080E097DF8DDF80ED61DF80E092DF80E03A
S11302A090DF86DF80ED5ADF81E08BDF80E089DF3D
S11302B07FDF80ED53DF82E084DF89E182DF78DF56
S11302C080ED4CDF83E07DDF85E07BDF71DF80ED57
S11302D045DF84E076DF88E174DF6ADF80ED3EDFAE
S11302E085E06FDF81E16DDF63DF80ED37DF85E07F
S11302F068DF86E166DF5CDF80ED30DF85E061DFAB
S111030081ED54DF70DF54DF0895F894FFCFD1
S9030000FC
