:020000020000FC
:0200000004C03A
:0200040096C0A4
:1000080098C018E01EBF1FEF1DBF11E017B911E01F
:1000180018B910E31AB910E01BB915E0109369007C
:1000280013E01DBB13E01CBB789414E013BFBDD0D4
:1000380084D09BD09FD00DD1F8D00BD115E013BF41
:10004800889514E013BF3130D1F1323009F0F6CF82
:100058005AE010E11BB91FD010E01BB91CD05A950B
:100068005030B9F7222DEED0F4D0232DEBD0F1D0BB
:10007800242DE8D0EED0252DE5D0EBD0262DE2D0EA
:10008800E8D0272DDFD0E5D0282DDCD0E2D06DD008
:1000980054D030E0DCCF0AE01FEF2FEF2A95F1F7BC
:1000A8001A95D9F70A95C1F7089505E01FEF2FEFC4
:1000B8002A95F1F71A95D9F70A95C1F7089558ECDA
:1000C8002AD0F3DF28D0F1DF26D0EFDF40ED01EDB5
:1000D80060E09ED0282E61E09BD0382E62E098D058
:1000E800482E63E095D0582E64E092D0682E65E0E3
:1000F8008FD0782E66E08CD0882E37D01ED030E096
:10010800A4CF01E012E322E32A95F1F71A95D9F773
:100118000A95C1F7089510E21BB9F3DF10E01BB987
:10012800F0DF5A955030B9F70895F89431E0789493
:100138001895F89432E07894189546EA07EA65E24B
:1001480071E05DD066E272E05AD067E27FE057D096
:100158006CE276E054D06FE277EF51D06EE278E04F
:100168004ED06DE278E04BD0089546EA07EA60E3A6
:100178004FD0089540ED01ED6EE070E040D060E0B2
:1001880070E03DD061E070E03AD062E079E137D0CC
:1001980063E075E034D064E078E131D065E071E186
:1001A8002ED066E076E12BD0089510E01093B900C8
:1001B80010EB1093B80014E01093BC00089514EAF3
:1001C8001093BC001091BC0017FFFCCF08959093CA
:1001D800BB0014E81093BC001091BC0017FFFCCFC3
:1001E800089514E81093BC001091BC0017FFFCCFD1
:1001F8009091BB00089514E91093BC000895DFDFC7
:10020800942FE5DF962FE3DF972FE1DFF4DF0895E2
:10021800D6DF942FDCDF962FDADFD1DF902FD7DF00
:1002280090E0DFDF892FE7DF089517E61093C40019
:1002380010E01093C50018E01093C1001EE0109361
:10024800C20008951091C00015FFFCCF2093C6008E
:10025800089504E11FEF2FEF2A95F1F71A95D9F7C2
:060268000A95C1F708959C
:00000001FF
