:020000020000FC
:1000000000C054E05EBF5FEF5DBF4CE047B94CE01D
:1000100048B940E94AB940E94BB90AD086EAC7EA8B
:1000200090E0A5EE36D07A1709F002C040E048B95A
:1000300050E05093B90054E55093B800089554EA45
:100040005093BC005091BC0057FFFCCF0895B09373
:10005000BB0054E85093BC005091BC0057FFFCCF4C
:10006000089554E85093BC005091BC0057FFF4CF62
:10007000B091BB00089554E95093BC00089550918D
:10008000B900587F511709F403C040E04BB90895F7
:100090000895D5DF2BD02AD029D018E0F0DFB82F73
:1000A000D6DF24D023D022D018E1E9DFB92FCFDF6B
:1000B0001DD01CD01BD018E2E2DFC1DF10E1DFDF72
:1000C00015D014D013D0BC2FC2DF10D00FD00ED05B
:1000D00010E4D5DFC6DF0AD009D008D018E5CFDF9D
:1000E0007B2FC9DF03D002D001D0089504E614E6C7
:1000F00024E62A95F1F71A95D9F70A95C1F70895DC
:00000001FF
