:020000020000FC
:1000000002C04BC04CC04CE047B94CE048B940E995
:100010004AB940E94BB905E00093690003E00DBB24
:1000200003E00CBB789404E003BF40E14BB905E06A
:1000300003BF889504E003BF3130C9F0323009F0C6
:10004000F6CF5AE040E04BB908D040E14BB905D0BB
:100050005A955030B9F730E0F3CF0AE01FEF2FEF99
:100060002A95F1F71A95D9F70A95C1F708955AE03C
:1000700040E048B908D048E048B905D05A9550301A
:10008000B9F730E0DBCF0AE01FEF2FEF2A95F1F749
:100090001A95D9F70A95C1F7089531E0189532E01D
:0200A0001895B1
:00000001FF
