:020000020000FC
:0200000004C03A
:02000400C9C071
:10000800CBC058E05EBF5FEF5DBF41E047B941E05C
:1000180048B940E34AB940E04BB905E000936900AC
:1000280003E00DBB03E00CBB789404E003BFD6D01B
:1000380086EAC7EA95E2A1E0FBD096E2A2E0F8D012
:1000480097E2AFE0F5D09CE2A6E0F2D09FE2A7EFFE
:10005800EFD09EE2A8E0ECD09DE2A8E0E9D086EAE5
:10006800C7EA90E3A2E0EDD080EDC1ED9EE0A0E00C
:10007800DFD090E0A0E0DCD091E0A0E0D9D092E021
:10008800A9E1D6D093E0A5E0D3D094E0A8E1D0D000
:1000980095E0A1E1CDD096E0A6E1CAD0F3D0DED0BC
:1000A800F1D005E003BF889504E003BF3130D1F1FA
:1000B800323009F0F6CF5AE040E14BB91FD040E0AA
:1000C8004BB91CD05A955030B9F7322DD4D0DAD06C
:1000D800332DD1D0D7D0342DCED0D4D0352DCBD0D0
:1000E800D1D0362DC8D0CED0372DC5D0CBD0382DD5
:1000F800C2D0C8D055D05AD030E0DCCF0AE01FEFCC
:100108002FEF2A95F1F71A95D9F70A95C1F70895AF
:1001180005E01FEF2FEF2A95F1F71A95D9F70A9501
:10012800C1F7089558EC2AD0F3DF28D0F1DF26D0A4
:10013800EFDF80EDC1ED90E084D0272E91E081D0F3
:10014800372E92E07ED0472E93E07BD0572E94E056
:1001580078D0672E95E075D0772E96E072D0872EEE
:100168001FD024D030E0A4CF01E012E322E32A9587
:10017800F1F71A95D9F70A95C1F7089540E24BB9F6
:10018800F3DF40E04BB9F0DF5A955030B9F70895E6
:10019800F89431E078941895F89432E078941895AA
:1001A80086EAC7EA90E3A2E04CD0089586EAC7EA57
:1001B80095E2A6E03DD096E2A2E03AD097E2AFE021
:1001C80037D09CE2AEE034D09FE2A7EF31D09EE278
:1001D800A8E02ED09DE2A8E02BD0089550E05093DF
:1001E800B90050EB5093B80054E05093BC00089508
:1001F80054EA5093BC005091BC0057FFFCCF0895BF
:10020800B093BB0054E85093BC005091BC0057FF1A
:10021800FCCF089554E85093BC005091BC0057FFA0
:10022800FCCFB091BB00089554E95093BC000895E9
:10023800DFDFB82FE5DFB92FE3DFBA2FE1DFF4DF27
:100248000895D6DFB82FDCDFB92FDADFD1DFBC2F76
:10025800D7DFB0E0DFDF7B2FE7DF089507E610E0A8
:100268001093C5000093C40008E00093C1000EE09D
:100278000093C20008951091C00015FFFCCF309381
:10028800C600089504E11FEF2FEF2A95F1F71A959C
:08029800D9F70A95C1F708959A
:00000001FF
